{
  "address": "0x58BFABA8927BDc2783099B1E2e6079e62cA4447c",
  "abi": [
    {
      "inputs": [
        {
          "internalType": "address",
          "name": "priceFeedAddress",
          "type": "address"
        }
      ],
      "stateMutability": "nonpayable",
      "type": "constructor"
    },
    {
      "inputs": [],
      "name": "FundMe__NotOwner",
      "type": "error"
    },
    {
      "stateMutability": "payable",
      "type": "fallback"
    },
    {
      "inputs": [],
      "name": "MINIMUM_USD",
      "outputs": [
        {
          "internalType": "uint256",
          "name": "",
          "type": "uint256"
        }
      ],
      "stateMutability": "view",
      "type": "function"
    },
    {
      "inputs": [],
      "name": "cheaperWithdraw",
      "outputs": [],
      "stateMutability": "nonpayable",
      "type": "function"
    },
    {
      "inputs": [],
      "name": "fund",
      "outputs": [],
      "stateMutability": "payable",
      "type": "function"
    },
    {
      "inputs": [],
      "name": "getVersion",
      "outputs": [
        {
          "internalType": "uint256",
          "name": "",
          "type": "uint256"
        }
      ],
      "stateMutability": "view",
      "type": "function"
    },
    {
      "inputs": [],
      "name": "i_owner",
      "outputs": [
        {
          "internalType": "address",
          "name": "",
          "type": "address"
        }
      ],
      "stateMutability": "view",
      "type": "function"
    },
    {
      "inputs": [
        {
          "internalType": "address",
          "name": "",
          "type": "address"
        }
      ],
      "name": "s_addressToAmountFunded",
      "outputs": [
        {
          "internalType": "uint256",
          "name": "",
          "type": "uint256"
        }
      ],
      "stateMutability": "view",
      "type": "function"
    },
    {
      "inputs": [
        {
          "internalType": "uint256",
          "name": "",
          "type": "uint256"
        }
      ],
      "name": "s_funders",
      "outputs": [
        {
          "internalType": "address",
          "name": "",
          "type": "address"
        }
      ],
      "stateMutability": "view",
      "type": "function"
    },
    {
      "inputs": [],
      "name": "s_priceFeed",
      "outputs": [
        {
          "internalType": "contract AggregatorV3Interface",
          "name": "",
          "type": "address"
        }
      ],
      "stateMutability": "view",
      "type": "function"
    },
    {
      "inputs": [],
      "name": "withdraw",
      "outputs": [],
      "stateMutability": "nonpayable",
      "type": "function"
    },
    {
      "stateMutability": "payable",
      "type": "receive"
    }
  ],
  "transactionHash": "0xc63d6f09cc6ab3dfb54ba78f394f4bf6558ef35536921cee814f399108859624",
  "args": [
    "0x694AA1769357215DE4FAC081bf1f309aDC325306"
  ],
  "numDeployments": 6,
  "solcInputHash": "ab210fd98380897103b9201d4ac14c2a",
  "bytecode": "0x60a06040523480156200001157600080fd5b50604051620012f7380380620012f783398181016040528101906200003791906200011d565b3373ffffffffffffffffffffffffffffffffffffffff1660808173ffffffffffffffffffffffffffffffffffffffff168152505080600260006101000a81548173ffffffffffffffffffffffffffffffffffffffff021916908373ffffffffffffffffffffffffffffffffffffffff160217905550506200014f565b600080fd5b600073ffffffffffffffffffffffffffffffffffffffff82169050919050565b6000620000e582620000b8565b9050919050565b620000f781620000d8565b81146200010357600080fd5b50565b6000815190506200011781620000ec565b92915050565b600060208284031215620001365762000135620000b3565b5b6000620001468482850162000106565b91505092915050565b60805161117762000180600039600081816104130152818161069f01528181610895015261096301526111776000f3fe60806040526004361061008a5760003560e01c806354861af71161005957806354861af71461014d5780636b69a5921461018a578063b60d4288146101b5578063be2693f0146101bf578063dba6335f146101d657610099565b80630d8e6e2c146100a35780630ec3b027146100ce5780631bf6132d146100f95780633ccfd60b1461013657610099565b3661009957610097610201565b005b6100a1610201565b005b3480156100af57600080fd5b506100b861033b565b6040516100c59190610b12565b60405180910390f35b3480156100da57600080fd5b506100e36103d3565b6040516100f09190610bac565b60405180910390f35b34801561010557600080fd5b50610120600480360381019061011b9190610c0a565b6103f9565b60405161012d9190610b12565b60405180910390f35b34801561014257600080fd5b5061014b610411565b005b34801561015957600080fd5b50610174600480360381019061016f9190610c63565b610651565b6040516101819190610c9f565b60405180910390f35b34801561019657600080fd5b5061019f610690565b6040516101ac9190610b12565b60405180910390f35b6101bd610201565b005b3480156101cb57600080fd5b506101d461069d565b005b3480156101e257600080fd5b506101eb610961565b6040516101f89190610c9f565b60405180910390f35b6802b5e3af16b1880000610240600260009054906101000a900473ffffffffffffffffffffffffffffffffffffffff163461098590919063ffffffff16565b1015610281576040517f08c379a000000000000000000000000000000000000000000000000000000000815260040161027890610d17565b60405180910390fd5b346000803373ffffffffffffffffffffffffffffffffffffffff1673ffffffffffffffffffffffffffffffffffffffff16815260200190815260200160002060008282546102cf9190610d66565b925050819055506001339080600181540180825580915050600190039060005260206000200160009091909190916101000a81548173ffffffffffffffffffffffffffffffffffffffff021916908373ffffffffffffffffffffffffffffffffffffffff160217905550565b6000600260009054906101000a900473ffffffffffffffffffffffffffffffffffffffff1673ffffffffffffffffffffffffffffffffffffffff166354fd4d506040518163ffffffff1660e01b8152600401602060405180830381865afa1580156103aa573d6000803e3d6000fd5b505050506040513d601f19601f820116820180604052508101906103ce9190610daf565b905090565b600260009054906101000a900473ffffffffffffffffffffffffffffffffffffffff1681565b60006020528060005260406000206000915090505481565b7f000000000000000000000000000000000000000000000000000000000000000073ffffffffffffffffffffffffffffffffffffffff163373ffffffffffffffffffffffffffffffffffffffff1614610496576040517f579610db00000000000000000000000000000000000000000000000000000000815260040160405180910390fd5b60005b600180549050811015610541576000600182815481106104bc576104bb610ddc565b5b9060005260206000200160009054906101000a900473ffffffffffffffffffffffffffffffffffffffff16905060008060008373ffffffffffffffffffffffffffffffffffffffff1673ffffffffffffffffffffffffffffffffffffffff1681526020019081526020016000208190555050808061053990610e0b565b915050610499565b50600067ffffffffffffffff81111561055d5761055c610e53565b5b60405190808252806020026020018201604052801561058b5781602001602082028036833780820191505090505b50600190805190602001906105a1929190610a52565b5060003373ffffffffffffffffffffffffffffffffffffffff16476040516105c890610eb3565b60006040518083038185875af1925050503d8060008114610605576040519150601f19603f3d011682016040523d82523d6000602084013e61060a565b606091505b505090508061064e576040517f08c379a000000000000000000000000000000000000000000000000000000000815260040161064590610f14565b60405180910390fd5b50565b6001818154811061066157600080fd5b906000526020600020016000915054906101000a900473ffffffffffffffffffffffffffffffffffffffff1681565b6802b5e3af16b188000081565b7f000000000000000000000000000000000000000000000000000000000000000073ffffffffffffffffffffffffffffffffffffffff163373ffffffffffffffffffffffffffffffffffffffff1614610722576040517f579610db00000000000000000000000000000000000000000000000000000000815260040160405180910390fd5b600060018054806020026020016040519081016040528092919081815260200182805480156107a657602002820191906000526020600020905b8160009054906101000a900473ffffffffffffffffffffffffffffffffffffffff1673ffffffffffffffffffffffffffffffffffffffff168152602001906001019080831161075c575b5050505050905060005b81518110156108305760008282815181106107ce576107cd610ddc565b5b6020026020010151905060008060008373ffffffffffffffffffffffffffffffffffffffff1673ffffffffffffffffffffffffffffffffffffffff1681526020019081526020016000208190555050808061082890610e0b565b9150506107b0565b50600067ffffffffffffffff81111561084c5761084b610e53565b5b60405190808252806020026020018201604052801561087a5781602001602082028036833780820191505090505b5060019080519060200190610890929190610a52565b5060007f000000000000000000000000000000000000000000000000000000000000000073ffffffffffffffffffffffffffffffffffffffff16476040516108d790610eb3565b60006040518083038185875af1925050503d8060008114610914576040519150601f19603f3d011682016040523d82523d6000602084013e610919565b606091505b505090508061095d576040517f08c379a000000000000000000000000000000000000000000000000000000000815260040161095490610f14565b60405180910390fd5b5050565b7f000000000000000000000000000000000000000000000000000000000000000081565b600080610991836109c1565b90506000670de0b6b3a764000085836109aa9190610f34565b6109b49190610fa5565b9050809250505092915050565b6000808273ffffffffffffffffffffffffffffffffffffffff1663feaf968c6040518163ffffffff1660e01b815260040160a060405180830381865afa158015610a0f573d6000803e3d6000fd5b505050506040513d601f19601f82011682018060405250810190610a33919061104e565b5050509150506402540be40081610a4a91906110c9565b915050919050565b828054828255906000526020600020908101928215610acb579160200282015b82811115610aca5782518260006101000a81548173ffffffffffffffffffffffffffffffffffffffff021916908373ffffffffffffffffffffffffffffffffffffffff16021790555091602001919060010190610a72565b5b509050610ad89190610adc565b5090565b5b80821115610af5576000816000905550600101610add565b5090565b6000819050919050565b610b0c81610af9565b82525050565b6000602082019050610b276000830184610b03565b92915050565b600073ffffffffffffffffffffffffffffffffffffffff82169050919050565b6000819050919050565b6000610b72610b6d610b6884610b2d565b610b4d565b610b2d565b9050919050565b6000610b8482610b57565b9050919050565b6000610b9682610b79565b9050919050565b610ba681610b8b565b82525050565b6000602082019050610bc16000830184610b9d565b92915050565b600080fd5b6000610bd782610b2d565b9050919050565b610be781610bcc565b8114610bf257600080fd5b50565b600081359050610c0481610bde565b92915050565b600060208284031215610c2057610c1f610bc7565b5b6000610c2e84828501610bf5565b91505092915050565b610c4081610af9565b8114610c4b57600080fd5b50565b600081359050610c5d81610c37565b92915050565b600060208284031215610c7957610c78610bc7565b5b6000610c8784828501610c4e565b91505092915050565b610c9981610bcc565b82525050565b6000602082019050610cb46000830184610c90565b92915050565b600082825260208201905092915050565b7f596f75206e65656420746f207370656e64206d6f726520455448210000000000600082015250565b6000610d01601b83610cba565b9150610d0c82610ccb565b602082019050919050565b60006020820190508181036000830152610d3081610cf4565b9050919050565b7f4e487b7100000000000000000000000000000000000000000000000000000000600052601160045260246000fd5b6000610d7182610af9565b9150610d7c83610af9565b9250828201905080821115610d9457610d93610d37565b5b92915050565b600081519050610da981610c37565b92915050565b600060208284031215610dc557610dc4610bc7565b5b6000610dd384828501610d9a565b91505092915050565b7f4e487b7100000000000000000000000000000000000000000000000000000000600052603260045260246000fd5b6000610e1682610af9565b91507fffffffffffffffffffffffffffffffffffffffffffffffffffffffffffffffff8203610e4857610e47610d37565b5b600182019050919050565b7f4e487b7100000000000000000000000000000000000000000000000000000000600052604160045260246000fd5b600081905092915050565b50565b6000610e9d600083610e82565b9150610ea882610e8d565b600082019050919050565b6000610ebe82610e90565b9150819050919050565b7f43616c6c206661696c6564000000000000000000000000000000000000000000600082015250565b6000610efe600b83610cba565b9150610f0982610ec8565b602082019050919050565b60006020820190508181036000830152610f2d81610ef1565b9050919050565b6000610f3f82610af9565b9150610f4a83610af9565b9250828202610f5881610af9565b91508282048414831517610f6f57610f6e610d37565b5b5092915050565b7f4e487b7100000000000000000000000000000000000000000000000000000000600052601260045260246000fd5b6000610fb082610af9565b9150610fbb83610af9565b925082610fcb57610fca610f76565b5b828204905092915050565b600069ffffffffffffffffffff82169050919050565b610ff581610fd6565b811461100057600080fd5b50565b60008151905061101281610fec565b92915050565b6000819050919050565b61102b81611018565b811461103657600080fd5b50565b60008151905061104881611022565b92915050565b600080600080600060a0868803121561106a57611069610bc7565b5b600061107888828901611003565b955050602061108988828901611039565b945050604061109a88828901610d9a565b93505060606110ab88828901610d9a565b92505060806110bc88828901611003565b9150509295509295909350565b60006110d482611018565b91506110df83611018565b92508282026110ed81611018565b91507f8000000000000000000000000000000000000000000000000000000000000000841460008412161561112557611124610d37565b5b828205841483151761113a57611139610d37565b5b509291505056fea2646970667358221220f7d1a0d4c66d82e0e4b92cdfe814db9241ed18723e64a6ef08441686f7251b5764736f6c63430008120033",
  "devdoc": {
    "details": "devdoc",
    "kind": "dev",
    "methods": {},
    "title": "A contract for crowd funding",
    "version": 1
  },
  "userdoc": {
    "kind": "user",
    "methods": {},
    "notice": "This contract is a study project",
    "version": 1
  },
  "storageLayout": {
    "storage": [
      {
        "astId": 60,
        "contract": "contracts/FundMe.sol:FundMe",
        "label": "s_addressToAmountFunded",
        "offset": 0,
        "slot": "0",
        "type": "t_mapping(t_address,t_uint256)"
      },
      {
        "astId": 63,
        "contract": "contracts/FundMe.sol:FundMe",
        "label": "s_funders",
        "offset": 0,
        "slot": "1",
        "type": "t_array(t_address)dyn_storage"
      },
      {
        "astId": 75,
        "contract": "contracts/FundMe.sol:FundMe",
        "label": "s_priceFeed",
        "offset": 0,
        "slot": "2",
        "type": "t_contract(AggregatorV3Interface)45"
      }
    ],
    "types": {
      "t_address": {
        "encoding": "inplace",
        "label": "address",
        "numberOfBytes": "20"
      },
      "t_array(t_address)dyn_storage": {
        "base": "t_address",
        "encoding": "dynamic_array",
        "label": "address[]",
        "numberOfBytes": "32"
      },
      "t_contract(AggregatorV3Interface)45": {
        "encoding": "inplace",
        "label": "contract AggregatorV3Interface",
        "numberOfBytes": "20"
      },
      "t_mapping(t_address,t_uint256)": {
        "encoding": "mapping",
        "key": "t_address",
        "label": "mapping(address => uint256)",
        "numberOfBytes": "32",
        "value": "t_uint256"
      },
      "t_uint256": {
        "encoding": "inplace",
        "label": "uint256",
        "numberOfBytes": "32"
      }
    }
  }
}